:020000040000FA
:08000000830100000000052847
:020008000800EE
:06000A00850187010730AB
:10001000990018308B00831670308F0091012F30BB
:100020008500073087000030950002309600C03010
:10003000810083123030900005128715D001031023
:1000400083169B011C141A088312D000D01E87113E
:100050005018B621D018A8215019AF21D019BD21B0
:10006000501E44282230D2008E018F018C011014C2
:1000700085190516851D0512D019BD210C1C3828BF
:100080008C01D20B382810105018E128D018EC2819
:100090005019F4281A29851857280B100B185728BF
:1000A000851AF6285018E128D01919294E288518E4
:1000B0005728A101A201031000000000000005194B
:1000C0005F280508A10D0139A104A20A8B108B1C21
:1000D00067280508A21D6228A001A201A00D013910
:1000E000A004A20A8B108B1C73280508221D6E2801
:1000F00004302006031985280830200603198A28B1
:100100000C30200603198F284B28DF3021060319F5
:10011000E6284B28DF3021060319C0284B285F3022
:1001200021060319DB289F3021060319EE28CF3062
:1001300021060319AC28D730210603193129DB30F9
:10014000210603196129DD30210603191429DE3047
:100150002106031914294B2883168512831285164C
:10016000501AA32120309721831685168312501E22
:100170004B282230D2008E018F018C0110143828B8
:1001800083168512831285162030972183168516D3
:10019000030197218512831285162030972183163B
:1001A00085168312501E4B283930D2008E018F01E4
:1001B0008C01101438285008F039013AD000CC21B5
:1001C000B62185190516851D05124B285008F039F2
:1001D000023AD000CC21A82105124B285008F03952
:1001E000043AD000CC21AF2105164B287F30932153
:1001F000851EFF2807083F39D100851A0C29501E9B
:100200004B2885190516851D05122230D2008E0156
:100210008F018C0110143828070851063F39031943
:10022000FD28BD21851A11295008F039083AD0005F
:10023000CC21BD2107080739D100511D28290430E0
:1002400051060319E128053051060319EC28F4285A
:10025000013051060319F428023051060319EC2825
:10026000E1285008103AD000CC21501A4C29070838
:100270003F39D100C52106309D21AF2106309D2197
:10028000B62106309D21A82106309D21C5210630CA
:100290009D21510887004B2807083F39D100C5210F
:1002A00006309D21A82106309D21B62106309D21D2
:1002B000AF2106309D21C52106309D2151088700C0
:1002C0004B285008203AD000CC21D01A7D29871124
:1002D00007083F39D100C52106309D21A8210630ED
:1002E0009D21C52106309D21A82106309D21C521D3
:1002F00006309D21510887004B28871507083F3994
:10030000D100C52106309D21AF2106309D21C52198
:1003100006309D21AF2106309D21C52106309D214B
:10032000510887004B28AF00AF0B94299A29AE00E3
:1003300003019329AE0B99290800AD000301972111
:10034000AD0B9F29080085190516851D05120800AB
:1003500007080F39103A0719303A870008000708D4
:100360000F39203A0719303A8700080007080F397B
:10037000303A0719303A8700080007080F39071884
:10038000203A8718103A8700080007080F39003A0A
:100390000719303A8700080083169A001C1555305B
:0C03A0009D00AA309D009C1483120800F0
:0403AC0000340034E5
:02400E00D438A4
:0242000022009A
:00000001FF
