:020000040000FA
:100000000000000000003128033087060428071094
:10001000871007110511303090008C0105180E284B
:10002000C401D101D201D301D401D701D901DE012C
:10003000DF01831603139B011C141A088312031398
:10004000D500D600D80003398719033AD000D00E66
:10005000851D53160230D8058C018E018F011014B6
:1000600046288312031385010730990000308B0066
:10007000831603132930850009308700003095006E
:10008000803081008312031305110728403032228B
:100090000000071500000000071183160313071066
:1000A0008714831203130B30A1000130A200043027
:1000B000A3000F30A4000430A5000B30A6000530CB
:1000C000A7000730A8000F30A9000D30AA000630A5
:1000D000AB000130AC000E30AD000930AE0008308E
:1000E000AF000F30B1000030B2000A30B300013071
:1000F000B4000830B5000530B6000F30B70001304D
:10010000B800B9000E30BA000130BB000030BC00AE
:100110000D30BD000E30BE000C30BF00BA302E22B4
:10012000B119071400000000071001302E22000052
:1001300000003118071400000000071001302E22C3
:1001400000000000B1180714000000000710013083
:100150002E220000000031190714000000000710D3
:1001600001302E2283160313071487108312031302
:1001700023302E220130C3000130203E84000000D5
:1001800000080139A0002018A0145008A00420087D
:10019000870000000708C200500887003B2244186F
:1001A000C20C04160008C20604124218C314C31C71
:1001B0000629D7105316D901D418591600005C220D
:1001C000840A0F300405031DBF280A210A210A21D1
:1001D0003708C40000000000000000003718F528B0
:1001E0008316031307148710FA28831603130710C6
:1001F0008714000083120313541554085904850012
:10020000431037080F39031DBD28BC28000000002B
:100210000000DF289D21000000002F08A000013E03
:10022000A1072208C0002108A207A20AA2092308E8
:10023000C1000F30A30540080F39A307A30A231AF2
:100240005C294108A4072508C0002408A507260842
:10025000C10040080F39083EC000401E2607A60016
:100260004108013EA7072708013EA8072808013ECC
:10027000A9072908013EAA072A08013EAB072B0857
:10028000013EAC072C08013EAD072D08013EAE072C
:100290002E08013EAF0720080F390F3EA0000000D6
:1002A000000000000000000000000000000000004E
:1002B000201E9C2900000F294108A3072408C00024
:1002C0002308A4072508C10040080F39083EC000D4
:1002D000401E2507A5004108013EA6072608013E4D
:1002E000A7072708013EA8072808013EA9072908F3
:1002F000013EAA072A08013EAB072B08013EAC07C6
:100300002C08013EAD072D08013EAE072E08013E28
:10031000AF0720080F390F3EA00087140708DE0042
:10032000000087100708DF00000000000000000048
:10033000201E9C2920080F2908003F08B000013E1C
:10034000B1073208C0003108B207B20AB209330857
:10035000C1000F30B30540080F39B307B30A331A91
:10036000EC294108B4073508C0003408B507360841
:10037000C10040080F39083EC000401E3607B600D5
:100380004108013EB7073708013EB8073808013E6B
:10039000B9073908013EBA073A08013EBB073B08D6
:1003A000013EBC073C08013EBD073D08013EBE07BB
:1003B0003E08013EBF0730080F390F3EB000000075
:1003C000000000000000000000000000000000002D
:1003D000301E9C2900009F294108B3073408C00043
:1003E0003308B4073508C10040080F39083EC00083
:1003F000401E3507B5004108013EB6073608013EEC
:10040000B7073708013EB8073808013EB907390871
:10041000013EBA073A08013EBB073B08013EBC0754
:100420003C08013EBD073D08013EBE073E08013EB7
:10043000BF0730080F390F3EB0005E18222A5F1C3C
:10044000242ACB2A00000000000000000000000069
:1004500000000000301E9C2900009F29CF00CF0B18
:100460002F2A0800CE0003012E22CE0B342A0800CA
:1004700005180728382A431C4E2A22300406031D7B
:10048000522A421C492A0000D7105912D4100930B0
:100490005A2AD7145916D41406305A2A00000000DC
:1004A000000000000000000000000000000000004C
:1004B00000005B2AB20008000508511C942A0000C5
:1004C000D10051187D2A0000521CE72AD20156089B
:1004D000D500D800831603139A001C1555309D00D3
:1004E000AA309D009C14831203130230D80510100B
:1004F0008C018E018F011014080000000000000024
:1005000000000C1CB72A10108C018E018F011014F2
:10051000D60A05305619D606560803398719033A04
:10052000D000D00E5214B52AD1005118B02A0000C4
:10053000000000000000000000000000531AC72A5D
:100540000C1CBB2A8C01D30A531EBF2A033055064C
:10055000031DAC2A5708AE2A58080000D400B52A5B
:100560008E018F018C011014B62A080000000000D3
:10057000000000000000000000000000000000007B
:10058000000000000000000000000000B52A00008C
:1005900000000000A62A8316031307148714831291
:1005A0000313DD015D150718DD1487185D160518A6
:1005B0005D115D088500071CE22A20308719303A5A
:1005C0008700D12A10308719303A8700D12A0511C7
:1005D00010108E018F018C011014D10105185114D7
:1005E0000C1CEE2A511C0728D30110108E018F011C
:1005F0008C0110140C1CFA2A8C01D30A0A30530601
:06060000031DFA2A072881
:02400E00D33F9E
:024200000100BB
:00000001FF
